:020000040800F2
:10000000B80D00202902000867210008191F000808
:10001000652100081F040008BD240008000000003E
:100020000000000000000000000000005122000855
:100030000D0A000800000000EF210008532200080C
:10004000430200084302000843020008430200087C
:10005000430200084302000843020008430200086C
:10006000430200084302000843020008430200085C
:10007000790900084302000843020008430200080F
:10008000430200084302000843020008430200083C
:10009000210400084302000843020008430200084C
:1000A000430200084302000843020008430200081C
:1000B000430200084302000843020008430200080C
:1000C00043020008430200084302000843020008FC
:1000D0004302000843020008430200080924000804
:1000E00043020008430200084302000843020008DC
:1000F00043020008430200084302000843020008CC
:1001000043020008430200084302000843020008BB
:1001100043020008430200084302000843020008AB
:100120004302000843020008850900084302000852
:10013000430200084302000843020008430200088B
:100140002D0400084302000843020008430200088F
:10015000430200084302000843020008430200086B
:10016000430200084302000843020008430200085B
:100170004302000843020008430200080000000098
:10018000430200084302000800F002F800F03CF8C7
:100190000AA090E8000C82448344AAF10107DA45E2
:1001A00001D100F031F8AFF2090EBAE80F0013F0F8
:1001B000010F18BFFB1A43F001031847002A000083
:1001C000202A0000103A24BF78C878C1FAD8520714
:1001D00024BF30C830C144BF04680C6070470000C1
:1001E0000023002400250026103A28BF78C1FBD840
:1001F000520728BF30C148BF0B6070471FB502F0DF
:10020000C2FC1FBD10B510BD00F0CFF81146FFF7BE
:10021000F5FF02F0A5F900F0EDF803B4FFF7F2FFE7
:1002200003BC00F0F5F80000094880470948004782
:10023000FEE7FEE7FEE7FEE7FEE7FEE7FEE7FEE796
:10024000FEE7FEE704480549054A064B70470000F3
:10025000ED22000889010008B8070020B80D002031
:10026000B8090020B809002053EA020C00F06980A8
:100270002DE9F04B4FF00006002B1FBFB3FA83F5BA
:1002800003FA05F424FA05F65E4012BF1643B2FAEB
:1002900082F502FA05F4C5F120051EBF22FA05FC1D
:1002A00044EA0C04203556EA044C4FEA144418BFC3
:1002B000641C4FF000084FF00009904271EB030CF2
:1002C00039D3002919BFB1FA81F701FA07F6B0FA5C
:1002D00080F700FA07F6C7F120071EBF20FA07FCD7
:1002E00046EA0C062037B6FBF4FCA7EB0507103FE7
:1002F00007F01F0BCBF120060CFA0BFB2CFA06F6CD
:1003000044BFB3460026202FA4BF5E464FF0000B2B
:100310005BEA060C08BF4FF0010B19EB0B09ABFBB6
:10032000027C48EB0608C01B06FB02CC0BFB03CC8F
:1003300071EB0C01C1E70B46024641464846BDE859
:10034000F08B13B54FF000004FF00001AFF30080C9
:10035000BDE81C4070474FF0000200B513469446BC
:100360009646203922BFA0E80C50A0E80C50B1F10D
:100370002001BFF4F7AF090728BFA0E80C5048BF21
:100380000CC05DF804EB890028BF40F8042B08BFBF
:10039000704748BF20F8022B11F0804F18BF00F8BB
:1003A000012B7047704770477047754600F02CF876
:1003B000AE4605006946534620F00700854618B052
:1003C00020B5FFF73FFFBDE820404FF000064FF09B
:1003D00000074FF000084FF0000B21F00701AC467A
:1003E000ACE8C009ACE8C009ACE8C009ACE8C00999
:1003F0008D46704710B50446AFF300802046BDE837
:100400001040FFF70ABF000000487047580700205F
:1004100001491820ABBEFEE7260002007047FEE748
:10042000014800F068BC000014010020014800F001
:1004300062BC00003C01002038B50E4C4FF4007542
:1004400025600025A560E560082525610A4C050AA0
:1004500025706070080AA070E170100A2071627146
:10046000180AA071E3716B4622460249034800F066
:10047000E2FA38BDFC0000200C000020140100202E
:1004800010B50346007820B1012806D002280BD110
:1004900007E0184600F006F906E0184600F0C8F834
:1004A00002E0184600F0D0F893EDA51AD3EDA60AA5
:1004B00093EDA70A174C71EE601A002071EEC01A76
:1004C000C3EDA91A71EE201A71EEC01AC3EDAA1A73
:1004D00070EEC11AB1EE411A71EE600A71EEC01AE7
:1004E00030EEC00AC3EDAB1AF3EE0E0A83EDAC0A90
:1004F00003EB800292EDA90A10EE101AA14205DD6D
:1005000020EE000A80EE201A82EDA91A401C042871
:10051000EEDB10BD0000F0415FF0000220F8121089
:10052000521C042AFADB704700B503465FF0000254
:1005300003EBC200001D00F0C1F8521C042AF7DBD7
:1005400000BD000070B504462DED048B002002466E
:100550009FED348ADFED348A9FED349A207042F2A9
:10056000107502232946B0EE481AF0EE680AB0EE84
:10057000490A04F1280001F0F7FD02230022294670
:10058000B0EE481AF0EE680AB0EE490A04F1A00095
:1005900001F0EAFD022300222946B0EE481AF0EEEF
:1005A000680AB0EE490A04F58C7001F0DDFD022303
:1005B00000222946B0EE481AF0EE680AB0EE490A69
:1005C00004F5C87001F0D0FD02230C220521B0EE25
:1005D000481AF0EE480AB2EE080A04F5027001F07B
:1005E000C3FD01F0A9FF606001F0AAFFE06001F027
:1005F000AFFF606101F0B0FFE061002004EB80011B
:10060000401C81EDA98A0428F8DB002104F52D7037
:10061000FFF782FF01F098FFC4F88002BDEC048B65
:1006200070BD0000000000000AD7233C00007544A4
:100630009FED040A80EDA50A80EDA60A80EDA70AC9
:100640007047000000000000D0F88012B1F90020CF
:1006500000EE102AF8EEC00A9FED0B0A80EE801A19
:10066000F2EE040A21EE201A80EDA51AB1F902106B
:1006700001EE101AB8EEC11AC1EE001A21EEA00A5E
:1006800080EDA60A7047000000002544D0F88012D3
:10069000C97A022904D0032901D1022101707047CF
:1006A0000021FBE79FED040A80EDA50A80EDA60A74
:1006B00080EDA70A70470000000000000168DFED30
:1006C000060AB1F9021000EE101AB8EEC00A20EEC8
:1006D000200A80ED010A70471792A63A10B5044629
:1006E000007840B3D4EDA90A94ED020A04F1280081
:1006F00000F088F884EDAD0AD4EDAA0A94ED040A5E
:1007000004F1A00000F07EF884EDAE0AD4EDAB0A4F
:1007100094ED060A04F58C7000F074F884EDAF0ACD
:10072000D4EDAC0A94ED080A04F5C87000F06AF83C
:1007300084EDB00A10BD9FED040A84EDAD0A84ED8E
:10074000AE0A84EDAF0AF3E7000000002DED028B46
:100750002848FFF7F7FE284DDFED288A9FED288A0D
:10076000002441F2883642F2283700BFF0EE680AD2
:10077000C4EB041005EBC000022332463946B0EE4C
:10078000601AB0EE480A01F0EFFC641C042CEDDBAB
:10079000184C1848FFF77AFF1648FFF771FE154806
:1007A000FFF7C2FE1348FFF74FFF1248FFF796FF0F
:1007B00094EDB00ABDEEC00A10EE100A94EDAF0A37
:1007C00003B2BDEEC00A10EE100A94EDAE0A02B2FA
:1007D000BDEEC00A10EE100A94EDAD0A01B2BDEEF6
:1007E000C00A10EE100A00B2FFF726FE322000F019
:1007F0005FFECEE7B0020020780500200000000078
:10080000CDCC0C4170B504462DED028B30EEC08A84
:1008100080ED0D0AC0ED0C0A80ED088AC16BD0EDA9
:10082000098A00F1180600F13805012902D00229D1
:1008300044D091E094ED000A20EE080A10EE100A70
:1008400002F030F9C4E90401D4ED010A94ED0B0A79
:1008500004F12C0060EE800A30EE080AC4ED060AAE
:1008600078EE680A94ED021A60EE810AC4ED070A78
:1008700084ED0B0A9FED3F0A01F0A4FC94ED110AF0
:10088000304601F09FFCE06902F00CF941EC180BD6
:10089000A06902F007F994ED041B53EC112B01F051
:1008A0001BFF53EC182B01F017FF01F0E3FEA063D0
:1008B00094ED100A284601F085FC4DE038EE680AF8
:1008C000D4ED000A20EE200A10EE100A02F0EAF839
:1008D000C4E9040194ED010A304620EE080A84EDD3
:1008E000060AB0EE000AD4ED020A08EEC08A94EDC2
:1008F0000A0A38EE000A20EE200A84ED070A94ED79
:10090000110A01F05FFCE06902F0CCF841EC180B31
:10091000A06902F0C7F894ED041B53EC112B01F011
:10092000DBFE53EC182B01F0D7FE01F0A3FE00EE26
:10093000100A284684ED120AD4ED140A30EE800A1B
:1009400084ED130A84ED0E0A94ED100A01F03AFCCE
:1009500094ED130A84ED140A94ED090A84ED0A0A51
:1009600094ED080A84ED090A94ED0E0ABDEC028BA1
:1009700070BD000000401C46014800F05FBC000054
:100980004C020020014800F059BC0000EC0100209E
:1009900001681823CAB2103AB2FBF3F2054B6FF3A9
:1009A0000901032A9B5CC36500D9091D81650846BE
:1009B000704700009A2B000810B5014600208B6993
:1009C0008A6A4FF0C07453B1B3F5005F15D072B1AD
:1009D000012A0CD0022A0AD0032A09D104E01AB154
:1009E000012A06D0022A03D1C96AC90100D5012013
:1009F00010BDC96AA142FAD010BD002AF7D0012A61
:100A0000F2D0022AF3D0032AF3D010BD704772B699
:100A1000FEE790F82020012A07D0022A05D0416A7B
:100A200041F48021416201207047006842690A4315
:100A3000426100207047F0B590F820500468A46827
:100A4000012D05D0022D03D0416A41F4802153E0ED
:100A500014F0406F01D1E5004BD5C4F30164022CC2
:100A600003D9416A41F4000146E00125A5401D601B
:100A70008D684FF4C0739DB1CE6835434E6845EA2A
:100A8000C605066803EB0417F5514FF4C2750768F5
:100A900005EB04150E697E51097D012905D009E099
:100AA0000E88CD6845EA4655EBE701684E5946F495
:100AB00080764E511179D2F805504FF4C67641EA4E
:100AC0000525016806EB04168D511178D2F8012036
:100AD0004FF4C47541EA0221026805EB0415515137
:100AE000006803EB0411425842F00102425000201A
:100AF000F0BD416A41F4001141620120F0BD0000E7
:100B000010B590F82020012A07D0022A05D0416AAA
:100B100041F480214162012010BD3B48D0F8002201
:100B200042F00102C0F80022D0F8002222F47C52E8
:100B3000C0F80022D0F800224B6A42EA0322C0F833
:100B400000220A7D02F01F0301229A40D0F81C32D5
:100B50009343C0F81C32CB69B3B9D0F80C3293433D
:100B6000C0F80C328C894B6864F31F434C6900EB6E
:100B7000C404C4F840320C890B6864F31F434C6909
:100B800000EBC404C4F84432CB69012B16D1D0F871
:100B90000C321343C0F80C320C884B6864F31F43CB
:100BA0004C6900EBC404C4F840320C89CB6864F390
:100BB0001F434C6900EBC404C4F844328B69002B1A
:100BC000D0F804320ED01343C0F804320B69002B66
:100BD000D0F8143208D01343C0F81432096A01293E
:100BE00004D008E09343EFE79343F5E7D0F81C12F5
:100BF0001143C0F81C12D0F8001221F00101C0F816
:100C00000012002010BD000000640040704730B5A5
:100C100090F82040012C05D0022C03D0416A41F409
:100C200080215DE00468002955D02469A40754D0D0
:100C30004FF4D874056804EB01142D5915F0040520
:100C4000956005682D594ED0ED08556005682C5902
:100C500004F00204D4604FF4DA74056804EB011464
:100C60002D5905F00F05156105682D59C5F30725A8
:100C7000956105682C59240C54614FF4DC720468AA
:100C800002EB0112A4581C700468A458240A5C707A
:100C90000468A458240C9C700468A258120EDA70E0
:100CA0004FF4DE72046802EB0112A4581C71046850
:100CB000A458240A5C710468A458240C9C7104682C
:100CC000A258120EDA71006881B1016941F0200169
:100CD0000161002030BDE468A8E7416A41F40011D9
:100CE0004162012030BD6D0D1560AFE7C16841F074
:100CF0002001C160EDE72DE9F05F054600680024A2
:100D00004669D0F804908768D0F80CB0D0F810A0ED
:100D1000D0F81880F10748D0F90714D0012181607C
:100D2000B80703D5284600F082FA0CE0780702D510
:100D30004FF4006407E0380702D54FF4805402E016
:100D4000284600F073FAF80516D529684FF480702C
:100D50008860B80503D5284600F06BFA0CE07805EA
:100D600002D544F4005407E0380502D544F4804429
:100D700002E0284600F05CFAF80316D529684FF423
:100D800080308860B80303D5284600F054FA0CE0A0
:100D9000780302D544F4004407E0380302D544F454
:100DA000803402E0284600F045FA300707D55FEAB4
:100DB000CB6004D52968102044F40074C860700723
:100DC0004FF0080707D55FEA0B7004D52868C760A5
:100DD000284600F099F9B00706D52868C068800752
:100DE00002D0284600F092F9700607D55FEACA6083
:100DF00004D52968102044F480640861B00607D542
:100E00005FEA0A7004D528680761284600F0DEF919
:100E1000F00606D528680069800702D0284600F051
:100E2000D6F9B00308D55FEAC96005D52968102056
:100E30004860284600F0CCF9F00307D55FEA097056
:100E400004D528684760284600F0F6F9300446D5F6
:100E50005FEA497040D5F00504D55FEAC87001D05B
:100E600044F00104B00504D55FEA887001D544F070
:100E70000204700504D55FEA487001D544F004040B
:100E8000300529D518F0700F26D008F070004028E2
:100E900015D006DC102809D020280AD0302816D119
:100EA0000AE050280ED0602811D10EE044F008046A
:100EB0000DE044F010040AE044F0200407E044F0A0
:100EC000400404E044F0800401E044F480742868A5
:100ED000816921F070018161296804204860002C3B
:100EE00005D0686A204368622846FFF78FFEBDE898
:100EF000F09F70B5040003D094F8200010B104E016
:100F0000012070BD204600F081F82068016841F0A2
:100F10000101016000F0DCFB0546052604E000F05D
:100F2000D7FB401B0A2811D820684068C007F6D0BC
:100F30002068016821F00201016000F0C9FB05464C
:100F40000BE000F0C5FB401B0A2806D9606A40F49C
:100F50000030606284F82060D2E720684068800733
:100F6000EFD4207E0128206801683DD021F0800167
:100F70000160607E01282068016838D021F04001BE
:100F80000160A07E01282068016833D021F0200193
:100F90000160E07E0128206801682ED041F0100138
:100FA0000160207F01282068016829D021F0080114
:100FB0000160607F01282068016824D021F00401CD
:100FC0000160D4E902010843D4E904121143084343
:100FD0006168491E08432168C861002060620120E1
:100FE00084F82000002070BD41F08001C0E741F08E
:100FF0004001C5E741F02001CAE721F01001CFE729
:1010000041F00801D4E741F00401D9E7F0B587B019
:10101000044614216846FFF79EF9364B3648DFF840
:10102000D0E01968D4F800C0334A03250226092706
:1010300010300024491CF44522D11960012907D140
:10104000016841F000710160006800F000700590D7
:10105000106840F0080010601068CDE9005600F0FC
:101060000800CDE9047069462448CDE9024500F046
:1010700031FA00221146142000F098FB142033E0CE
:10108000DFF87CE0F44531D1D0F800C04CF0806C42
:10109000C0F800C0D0F800C001290CF0806CCDF879
:1010A00014C0196007D1016841F000710160006847
:1010B00000F000700590106840F0020010601068A9
:1010C00002AB00F00200059042F22000CDE90006DC
:1010D00083E8B00069460B4800F0FCF900220621C5
:1010E000402000F063FB402000F052FB07B0F0BD51
:1010F000006400401400002030380240000C024020
:1011000000680040000402407047000010B52B4901
:101110002B4C8AB0884221D107AB6A460021FFF7E9
:1011200076FD0098A0F50070013805D0012803D0A5
:10113000022801D003283FD100982249401EC0B2A6
:10114000207000EB800201EB420031F81230038185
:10115000BDF81C305BBA21F8123022E01A498842EF
:101160002AD107AB6A460021FFF751FD0098A0F590
:101170000070053803D0012801D002281CD1009846
:10118000104A401EC0B2607000EB8001283202EBB2
:10119000410032F811300381BDF81C305BBA22F8EF
:1011A0001130BDF81E1049BA4180BDF8201049BA6F
:1011B00081809DF8221081710AB010BD14010020B9
:1011C00002000020880000203C010020704770478A
:1011D0007047000070B5044690F82000012804D044
:1011E000606A40F40020606218E0022084F8200069
:1011F0002068016821F00101016000F069FA0546EC
:101200000EE000BF00F064FA401B0A2808D9606AAB
:1012100040F400306062052084F82000012070BD99
:1012200020684068C007EDD1606270BD70477047AC
:101230007047704770477047704700002DE9F843CA
:1012400004464FF00009CDF8009063484FF4165162
:10125000A56D0068B0FBF1F72E6894F85C100820CB
:1012600000FA01F131420FD021680A6852070BD50C
:101270000A6822F004020A6094F85C108840A860B2
:10128000606D40F00100606594F85C104FF001085B
:1012900008FA01F0304208D021684969090604D5EE
:1012A000A860606D40F00200606594F85C10042056
:1012B0008840304208D021680968890704D5A860B1
:1012C000606D40F00400606594F85C101020884068
:1012D000304218D021680968090714D5A860206831
:1012E0000168490304D50068000308D5A16C07E034
:1012F0000168C90503D4016821F008010160216C6F
:1013000009B12046884794F85C102020884030427C
:1013100031D021680968C9062DD5A86094F8350038
:1013200005282068016806D0490347D500680003F6
:101330001DD4616C1CE021F0160101602068416938
:1013400021F080014161206C08B9A06C20B12068B7
:10135000016821F00801016094F85C103F2088408A
:10136000A86084F8358084F83490216D1FE0E16B2B
:1013700009B120468847606D00282BD0606DC007FA
:1013800014D0052084F835002068016821F001019F
:1013900001600098401C0090B84203D820680068A3
:1013A000C007F6D184F8358084F83490E16C0029C8
:1013B00010D001B02046BDE8F04308470168C905D8
:1013C000D5D4016821F01001016084F8358084F8DB
:1013D0003490CCE7BDE8F883240000202DE9F041EB
:1013E000044600F075F906465CB1022084F8350029
:1013F000002584F834502068016821F00101016063
:101400000DE00120BDE8F08100F062F9801B0528A5
:1014100005D920206065032084F83500F2E72068B4
:101420000068C007F0D12268116820480140D4E963
:1014300001031843D4E9033633431843636918435F
:10144000A3691843E3691843236A18430843616A90
:10145000042903D1D4E90B13194308431060206811
:101460004069666A20F0070130460E4301270428D0
:101470000CD1A06A0643E06A40B12046FFF79CFA0F
:1014800020B14020606584F83570BAE72068466175
:101490002046FFF77DFA94F85C203F21914081605F
:1014A000656584F835700020ACE700003F8010F0DF
:1014B00070B5044600F00CF90546601C02D00448E3
:1014C0000078044400F004F9401BA042FAD370BD38
:1014D000180000202DE9F84FDFF8BCA100220125FB
:1014E00003264FF00F090AF1040BAAF1040E00BF06
:1014F0000B6805FA02F42340A34270D10F7907F07C
:101500000307012F01D0022F16D187684FEA420846
:1015100006FA08FC27EA0C07D1F80CC00CFA08FC04
:101520004CEA070CC0F808C04768A7430C79C4F31D
:10153000001494403C4344600C79E443A4070AD06F
:10154000C4684FEA420C06FA0CF7BC438F6807FAEE
:101550000CF72743C7600C7904F00304022C12D166
:10156000D40800EB840CDCF820405707FF0E09FA82
:1015700007F824EA0804D1F8108008FA07F848EAC6
:101580000408CCF8208004684FEA420C06FA0CF7F5
:10159000BC430F7907F0030707FA0CF727430760EE
:1015A0004C6814F4403F70D03C4C276847F48047A7
:1015B0002760246822F0030704F480440094384C28
:1015C00007EB040CDCF8084897074FEA177809FA8C
:1015D00008F7BC43334FB84202D1002724E054E05F
:1015E000314FB84201D101271EE0304FB84201D13E
:1015F000022719E02E4FB84201D1032714E02D4FE6
:10160000B84201D104270FE02B4FB84201D1052782
:101610000AE02A4FB84201D1062705E0284FB84218
:1016200001D1072700E0082707FA08F72743CCF87D
:101630000878DAF800405746D1F804C09C435FEAC6
:10164000CC2C00D51C433C60DBF800405F46D1F851
:1016500004C09C435FEA8C2C00D51C433C60DEF840
:1016600000407746D1F804C09C435FEA8C3C00D52B
:101670001C433C60084F083F3C68D1F804C09C43C1
:101680005FEACC3C00D51C433C60521C102AFFF49E
:101690002FAFBDE8F88F0000083C014044380240FD
:1016A00000300140000002400004024000080240F7
:1016B000000C0240001002400014024000180240DA
:1016C000001C02400AB1816170470904FBE7000079
:1016D00001488068704700001800002002488168B7
:1016E0000278114481607047180000200B4810B543
:1016F000016841F400710160016841F4806101609A
:10170000016841F480710160032000F06FF80F2040
:1017100000F006F800F024F8002010BD003C024064
:1017200070B50D4D04464FF47A712878B1FBF0F096
:101730000A490968B1FBF0F000F00CFB48B9102C25
:1017400007D200222146501E00F030F800206C60C5
:1017500070BD012070BD0000180000202400002092
:101760000A4808B5016841F480410160006800F44E
:10177000804000900548001F016841F080510160E1
:10178000006800F08050009008BD0000443802401E
:10179000002809DB00F01F02012191404009800070
:1017A00000F1E020C0F8001170470000F0B40E4BCB
:1017B0001B680C46C3F30223C3F10705042D00D9AF
:1017C0000425191D072901D2002300E0DB1E012694
:1017D00006FA05F1491E214099409E40761E1640AA
:1017E0003143F0BC00F06BBE0CED00E0064900F0A8
:1017F000070208684FF6FF03184040EA0220034A38
:1018000010430860704700000CED00E00000FA058E
:101810002DE9F0470E46050065D0DFF81481D8F8B1
:101820000000F7B200F00700B04207D288F800705D
:10183000D8F8000000F00700B04254D128683D4CB1
:10184000810712D5400703D5206840F4E05020609E
:101850002878000703D5206840F4604020602068A5
:10186000A96820F0F000084320602878C0072DD038
:10187000304968680839012812D0022813D003289B
:1018800011D00968890700292DDA216821F00301A8
:1018900001432160FFF71CFF814641F2883A0EE0C8
:1018A00009688903EFE709688901ECE7FFF710FF92
:1018B000A0EB0901514502D90320BDE8F08720685B
:1018C000696800F00C00B0EB810FEFD1D8F8001080
:1018D000404601F00701B14207D90770006800F0E7
:1018E0000700B04201D00120E7E72878400705D57E
:1018F0002068E96820F4E050084320602878000759
:1019000006D52068296920F4604040EAC1002060C3
:1019100000F038F82168084AC1F30311515CC8404F
:101920000649086006480068FFF7FAFE0020C4E791
:10193000003C024008380240A22B0008240000208E
:101940001C0000200448054900680968044AC1F3E6
:101950008221515CC84070472400002008380240B2
:10196000B22B00080448054900680968044AC1F31D
:101970004231515CC84070472400002008380240C2
:10198000B22B0008154810B5006810F00C0214487E
:1019900013D01449042A0FD0082A0ED10F4C241F4B
:1019A0002268236802F03F025B0207D52068C0F37B
:1019B0008810A0FB010106E0084610BD2168C1F3B4
:1019C0008811A1FB00010023FEF74EFC2168C1F342
:1019D0000141491C4900B0FBF1F010BD083802403C
:1019E0000024F400001BB7002DE9F84F04006ED06E
:1019F0002078DFF84C93C007A9F104054AD009F11B
:101A000004000168C1F38101012908D00068C0F316
:101A1000810002280AD1D9F80000400206D52868C2
:101A2000800337D560680028E1D033E06068B0F506
:101A3000803F10D0B0F5A02F286810D020F480305F
:101A40002860286820F4802028606068A8B1FFF72B
:101A50003FFE06460DE0286840F48030F4E740F48D
:101A600080202860F7E700BFFFF732FE801B642864
:101A700073D828688003F7D50CE0FFF729FE0646E7
:101A800005E000BFFFF724FE801B6428F0D828681B
:101A90008003F7D42078DFF8AC8280074FF0000A8B
:101AA0003ED5A748001D016811F00C0F08D0006852
:101AB000C0F3810002280BD1D9F80000400207D4FE
:101AC0002868800716D5E068012800D112E033E1CC
:101AD000E068B8B10120C8F80000FFF7F9FD06463C
:101AE00005E000BFFFF7F4FD801B0228C0D828687E
:101AF0008007F7D52868216920F0F80040EAC10086
:101B000028600DE0C8F800A0FFF7E2FD064604E0FB
:101B1000FFF7DEFD801B02281FD828688007F7D456
:101B20002078000722D5864F87486169703771B1E8
:101B300001210160FFF7CCFD064604E0FFF7C8FD78
:101B4000801B022809D838688007F7D50EE0C0F856
:101B500000A0FFF7BDFD064605E082E0FFF7B8FDF7
:101B6000801B02287DD838688007F7D4207840078A
:101B700068D5DFF8CCB100270BF13C0BDBF8000097
:101B8000C0000BD4DBF8001041F08051CBF80010FE
:101B9000DBF80000012700F0805000906B4E3068A9
:101BA000C00510D4306840F480703060FFF790FDBD
:101BB000009005E0FFF78CFD0099401A022850D8EC
:101BC0003068C005F6D55E4EA0686C3601280FD08F
:101BD0000528306810D020F001003060306820F017
:101BE00004003060A068B8B1FFF772FD00900FE00C
:101BF000306840F00100F4E740F004003060F7E79F
:101C0000FFF766FD0099411A41F28830814266D89B
:101C100030688007F4D50EE0FFF75AFD009007E02A
:101C2000FFF756FD0099411A41F28830814256D89B
:101C300030688007F4D42FB1DBF8001021F0805118
:101C4000CBF80010A069C8B33D49091D0968C1F36C
:101C5000810102294AD00228504607D0C8F8600006
:101C600000E03CE0FFF734FD04463BE04746C8F89F
:101C70006000FFF72DFD064605E000BFFFF728FDD9
:101C8000801B02282BD828688001F7D4D4E90701EB
:101C90000843A16A2E4A490802EB0141626A41EAFF
:101CA0008211084394F82C1040EA0161C9F8001031
:101CB00001203866FFF70CFD044606E03EE000BF59
:101CC000FFF706FD001B022809D828688001F7D518
:101CD00034E000BFFFF7FCFC001B022802D9032000
:101CE000BDE8F88F28688001F4D427E00128F7D0F8
:101CF000D9F80000E26900F4800191421CD1226A07
:101D000000F03F01914217D147F6C071626A01406D
:101D1000B1EB821F10D1A26A4FF0FF3300F44031C3
:101D200003EB5202B1EB024F06D194F82C1000F0F5
:101D30007060B0EB016F01D00120D1E70020CFE748
:101D40000438024000004742800E474200700040C5
:101D50000000FFFF10B5401EB0F1807F01D30120CD
:101D600010BD4FF0E02460610F21601700F0A7FB69
:101D70000020A06107202061002010BD70B5040084
:101D800004D094F83D00002510B106E0012070BD9C
:101D900084F83C50204600F023F8242084F83D00CD
:101DA0002068C16821F40051C160204600F0A6FA05
:101DB0002068016921F4904101612068416921F0A6
:101DC0002A0141612068C16841F40051C160256465
:101DD000202084F83D0084F83E00002070BD000003
:101DE0002DE9F04387B0064614216846FEF7B3FAA2
:101DF000DFF804C10222316800244048032307258C
:101E000097064FF480684FF44039614533D13B4920
:101E10001431D1F800C04CF0100CC1F800C00968B2
:101E200001F010010591016841F0020101600068B4
:101E3000694600F002000590C0208DE81500CDE94C
:101E400003352F48FFF746FB2F4D2E482860C5E984
:101E50000174C5E903486C61AC61C5E907492846CE
:101E60006C62FFF7BBFA08B1FEF7D1FDB563AE6354
:101E700007B0BDE8F083DFF894C06145F8D11F4991
:101E80001031D1F800C04CF4802CC1F800C00968B2
:101E900001F480210591016841F0040101600068AE
:101EA000694600F0040005904FF440608DE815008D
:101EB000CDE903351648FFF70DFB134D1548603586
:101EC0002860C5E90174C5E9034880156C61C5E95E
:101ED0000640C5E908942846FFF780FA08B1FEF7E6
:101EE00096FDB563002211462720AE63FFF75EFC26
:101EF0002720FFF74DFCBBE70010014030380240BF
:101F00000004024040640240EC0100200048004010
:101F10000008024028600240FEE700000F4810B5AC
:101F20000D4901600321416000214FF410228160BE
:101F3000C0E903124FF400124261017641768176C6
:101F4000C17601774177FEF7D4FF002803D0BDE8C2
:101F50001040FEF75CBD10BD00640040140100207D
:101F60000F4810B50D4901600321416000214FF475
:101F700010228160C0E903124FF400124261017621
:101F800041768176C17601774177FEF7B2FF00286E
:101F900003D0BDE81040FEF73ABD10BD0068004018
:101FA0003C010020114808B5016841F400110160AE
:101FB000016801F400110091016841F480010160A1
:101FC0000068002200F48000009011460C20FFF70A
:101FD000EDFB0C20FFF7DCFB002211463A20FFF757
:101FE000E5FBBDE808403A20FFF7D2BB303802409D
:101FF0002DE9F04387B014216846FEF7ACF9374865
:102000000024016841F010010160016801F0100135
:102010000591016841F002010160016801F00201CF
:102020000591016841F001010160016801F00101C1
:102030000591016841F008010160016801F00801A3
:102040000591016841F004010160016801F004019B
:102050000591016841F480710160016801F48071AB
:102060000591016841F08001016000681C4F00F09B
:1020700080004FF40E750590002229463846FFF780
:1020800021FBDFF86080002280214046FFF71AFB29
:10209000DFF854904FF4E056002231464846FFF7EF
:1020A00011FB00950125CDE901546946384603949A
:1020B000FFF710FA80200090CDE9015469464046B0
:1020C0000394FFF707FA0096CDE9015469464846A4
:1020D0000394FFF7FFF907B0BDE8F0833038024002
:1020E0000010024000200240001C02400C4810B5C5
:1020F0000A4901604FF4E1314160002181600C2206
:10210000C160C0E904128161C161FFF737FE002898
:1021100003D0BDE81040FEF77ABC10BD00100140AE
:10212000640100200D4810B50B4901600C49416065
:1021300000214FF480628160C0E903120C22C0E9E3
:102140000521C161FFF71AFE002803D0BDE8104049
:10215000FEF75DBC10BD000000480040A801002053
:10216000A0860100FEE7FEE780EC030A9FED120B5C
:1021700080ED040B9FED120A00EE901A80ED060A26
:1021800080ED070A80ED090A80ED0A0A80ED080A51
:10219000F8EEE00A80ED0B0AC363C0ED100A00EE12
:1021A000902AF8EEE00AC0ED110A80ED120A80EDE7
:1021B000130A80ED140A70470000000000000000C0
:1021C00000000000D0ED000AF4EEC00AF1EE10FAB3
:1021D00001DD80ED000AD0ED000AB1EE400AF4EE18
:1021E000C00AF1EE10FA01D280ED000A7047704784
:1021F00030B5144B1C68656945F0400565611B6886
:10220000DC6844F01004DC600F4B1C68256825F086
:10221000010525601C682568ED07F7D11D680B4C8A
:10222000AC601C68E060186801611868426018685A
:10223000016841F4802101601868016841F00101E2
:10224000016030BDA80100204C020020044800407D
:102250007047FFF743BA000030B593B030216846AD
:10226000FEF779F814210CA8FEF775F81D48002533
:10227000016841F080510160006800F080501190C9
:102280001948016841F4804101600068022400F4AB
:102290008040119001200090000401908001CDE960
:1022A000064006200890A820CDE9090404200B90E0
:1022B0006846FFF799FB08B172B6FEE70CA90F203C
:1022C00081E831004FF4A0500F904FF480501090EF
:1022D00005210CA8FFF79CFA002801D072B6FEE792
:1022E00013B030BD40380240007000400248016821
:1022F00041F470010160704788ED00E070B504465C
:1023000000680169E26821F44051114301612169CB
:10231000A068E26908436169114308432168CA68FB
:1023200049F20C639A430243CA6020684169A2697A
:1023300021F440711143416131492068884202D043
:102340003049884202D1FFF70DFB01E0FFF7FAFAAE
:10235000E2690023192164253226B2F5004F626834
:1023600028D0A0FB0101930F9200FDF77DFF0146ED
:10237000B0FBF5F06FF01802504301EB800006EB64
:102380000010B0FBF5F000F0F002B1FBF5F002EB4D
:102390000012B1FBF5F06FF01803584301EB800019
:1023A00006EB0010B0FBF5F000F00F0021681044C0
:1023B000886070BDA0FB010192185B41FDF754FFDE
:1023C0000146B0FBF5F00201B1FBF5F06FF0180328
:1023D000584301EB800006EBC000B0FBF5F000F0C5
:1023E000F80002EB4002B1FBF5F0584301EB80002E
:1023F00006EBC000B0FBF5F000F00700D6E70000E8
:102400000010014000140140264818B4006801681B
:10241000890604D501684068009018BC70472249BD
:102420000968C906F9D501684068204A009010681B
:1024300001684FF024030C031D49046824F00104D3
:10244000046016D410684468C4F12404A4B20C805B
:1024500043601068016841F4002101601068016860
:1024600041F001010160122CD7D1124901F116008F
:1024700015E014686068C0F1240080B208806360D1
:102480000D498B6A23F400238B6211680A6842F0BD
:1024900001020A601228C0D1064901F13A0018BCB5
:1024A00000F08EB8A8010020004800404C02002037
:1024B000000000202800002000600240FEE709071D
:1024C000090E002804DB00F1E02080F800147047BA
:1024D00000F00F0000F1E02080F8141D70470000AC
:1024E00000B58BB000200121CDE9060108910090D4
:1024F0000190029003900590049069460C48FEF705
:10250000FFFA0B48FEF766FE02210948FEF781FA42
:102510000E200990059069460648FEF7F1FA054835
:10252000FEF758FE02210348FEF773FA0BB000BD18
:10253000140100203C010020004870478800002062
:102540000048704792000020004870472800002093
:10255000004870479C00002000487047A6000020FB
:10256000FFF7C4F8FFF778FEFFF742FDFFF71AFD0B
:10257000FFF7D8FDFFF7BAFDFFF7D0FCFFF7F0FC3F
:102580000A480168CA6842F02002CA600068C1684F
:1025900041F01001C160FFF7A3FF00F009F83220FD
:1025A000FEF786FFFEF7D2F8F9E70000A801002049
:1025B00002492422A1F12400FFF71ABE6200002084
:1025C000F0B5002855D0002953D00278437842EA6C
:1025D0000322C2F30A020A8043788478DB0843EAC4
:1025E0004413C3F30A034B808478C578A40944EAF2
:1025F0008504057944EA8524C4F30A048C800579AE
:1026000046796D0845EAC615C5F30A05CD804679B9
:10261000C6F301168E724679B609CE728679C779ED
:1026200046EA07268E81067A477A46EA0726CE8151
:10263000867AC77A46EA07260E82067B8E74467B28
:10264000CE74867BC77B46EA07268E82067C407C5A
:10265000A2F580620A80A3F580634B80A4F58064B4
:1026600046EA00208C80A5F58065CD80A0F58060CD
:102670000881F0BD21F00042A2F16052B2F5801F46
:1026800001F0004328BFD2F17F6C0BD95FEA001C38
:1026900043EAC20242EB507018BF704728BF20F0D7
:1026A00001007047B2F5801FBCBF184670474FEA63
:1026B000410C1CF5001F02D2084600F069BA70B543
:1026C00000F0B2F800000089FFF7F6BF4FF00040BD
:1026D000A0F580007047000010B591EA030F48BFD5
:1026E00083F0004300F1FC80841A71EB030C05D2E7
:1026F000121943EB0C03001B61EB0C01DFF824E122
:102700004FEA1154A4EB135C1EEA430F18BF9EEA74
:10271000445F73D023EA0E03DCF1200E21EA04515A
:1027200043F4801332D322FA0CFE10EB0E0023FA8E
:102730000CFE41EB0E01CCF1200E03FA0EFE10EB65
:102740000E0051F10001B1F5801FCCF1200E32D204
:1027500001EB045112FA0EF2BDE8104058BF704769
:10276000401C38BF5FEA420218BF7047002814BF00
:1027700020F0010041F100014FEA410313F5001F71
:1027800038BF7047A1F1C04100F09CB8012A43EB6B
:102790000302ACF1200CDCF11F0E32BF4FF0000E33
:1027A00023FA0CF310EB030041EB0451B4EB115F7F
:1027B000D0D0A1EB045101F5801149085FEA300047
:1027C00001EB04510ED350F1000038BF12FA0EFE97
:1027D00008D1BDE81040C9E7401C38BF5FEA42029B
:1027E000CAD1C3E7BDE810404FEA410313F5001F0B
:1027F00038BF7047A1F1C04100F064B89EEA445F61
:1028000008D011EA5E0FBDE8104004BF01F000419E
:1028100000207047BDE8104070B500F005F800BF1B
:1028200064FBBE3E0000E0FF0EF1020E2EF0030E30
:102830005EF8046B364205D4012A43EB030515F517
:10284000001F12D8012841EB010C1CF5001F0CD809
:102850000ED14FEAD17C15F5001F0CEB4C0C0CF19E
:10286000020C08BF4CEBD37C04E04FF0080C01E0F5
:102870004FEAD37C0CEB4C0526FA05F606F007066A
:10288000B6F1040C06D20EEB860CBDE870404CF09D
:10289000010C6047DFE80CF0090B02024FF0004129
:1028A0004FF00000A1F5002170BD19461046012827
:1028B00051EB010418BFD4F5001484BF002001F0CF
:1028C000004170BD0808A0F500114FEA31017047C2
:1028D00010B591EA030F48BF83F000433FF504AF02
:1028E000841A71EB030C07D212198CF0004C43EBE5
:1028F0000C03001B61EB0C01DFF8A4E14FEA11545B
:10290000A4EB135C1EEA430F18BF9EEA445F00F07D
:10291000B08023EA6E03524221EA0451C3EB6E03F6
:1029200038BF5B1EDCF1200E25D322FA0CFE10EB23
:102930000E0043FA0CFE41EB0E01CCF1200E03FA1F
:102940000EFE10EB0E0051F10001CCF1200E29D447
:1029500012FA0EF201EB0451BDE8104058BF704767
:10296000401C1CBFB2F1004F704700280CBF491C2F
:1029700020F00100704712EB020E43EB030218BF78
:102980004FF0010E4EEA4202ACF1200CDCF11E0EBB
:1029900054D943FA0CFE10EB0E0051F1FF31CCF18B
:1029A0001E0ED5D50EF1010E12FA0EFE404141EB7E
:1029B000010101EB445C5FEA5C5C10D910EBDE7056
:1029C00001EB045138BFBEF1004FBDE8104018BF05
:1029D000704700280CBF491C20F00100704730D21E
:1029E0004FEAD42C11F5001124F400641BD0B1FA85
:1029F00081F20B3AA41AA41ED2F12003914030FABE
:102A000003F31943904001EBCC71002C01EB04510E
:102A1000BDE81040A8BF704701F1C0414FF0000071
:102A200001F000417047B0FA80F310FA03F100D1D1
:102A300010BDE41A173C4805C90AE4E701EB04514C
:102A400010BD491001EB0451BDE810404FEA3000C1
:102A500002E04FF0000170474A0008BF0042F8D082
:102A6000B2F5001F28BF704701F000414FF0000091
:102A700070479EEA445F07D011EA5E0FBDE8104040
:102A800004BF002100207047BDE8104070B5FFF77B
:102A9000CBFE00BF40DFF63E83F00041104670479A
:102AA0000000E0FF43004FEAD30C4FEA3C0C4340E8
:102AB0001FBF40070CF1605113F0FE4F70471CF030
:102AC000006F03D100200CF0004170470CF0004370
:102AD00043EA507010B540EACC0000F00EF800BF99
:102AE000000000924FEA0001FFF7ECBE4FF00041FA
:102AF0004FF00000A1F5002170470EF1020E2EF0FC
:102B0000030E5EF8044B244204D44FEA4102B2F1B2
:102B10007F4F11D84FEA4003B3F17F4F0CD80ED14D
:102B20004FEAD07CB2F17F4F0CEB4C0C0CF1020C55
:102B300008BF4CEBD17C04E04FF0080C01E04FEAF9
:102B4000D17C0CEB4C0324FA03F404F00704B4F139
:102B5000040C06D20EEB840CBDE810404CF0010CC6
:102B60006047DFE80CF0070802024FF00040A0F5D4
:102B7000800010BD0846420018BFD2F1807288BFA5
:102B800000F0004010BD4FF04070E1EE100A7047B9
:102B9000FF2141EAD050C00570470006101600061C
:102BA00010160000000000000000010203040607E8
:102BB000080900000000010203040000DC2B0008EB
:102BC0000000002028000000C4010008042C0008B8
:102BD00028000020900D0000E00100080000000027
:102BE00000000000000000000000000000000000E5
:102BF00000000000010000001000000000000000C4
:042C00000024F400B8
:040000050800018965
:00000001FF
